{
  "_format": "hh-sol-artifact-1",
  "contractName": "Faucet",
  "sourceName": "contracts/FaucetContract.sol",
  "abi": [
    {
      "inputs": [],
      "name": "addFunds",
      "outputs": [],
      "stateMutability": "payable",
      "type": "function"
    },
    {
      "inputs": [],
      "name": "getAllFunders",
      "outputs": [
        {
          "internalType": "address[]",
          "name": "",
          "type": "address[]"
        }
      ],
      "stateMutability": "view",
      "type": "function"
    },
    {
      "inputs": [
        {
          "internalType": "uint8",
          "name": "index",
          "type": "uint8"
        }
      ],
      "name": "getFunderAtIndex",
      "outputs": [
        {
          "internalType": "address",
          "name": "",
          "type": "address"
        }
      ],
      "stateMutability": "view",
      "type": "function"
    },
    {
      "inputs": [],
      "name": "numOfFunders",
      "outputs": [
        {
          "internalType": "uint256",
          "name": "",
          "type": "uint256"
        }
      ],
      "stateMutability": "view",
      "type": "function"
    },
    {
      "inputs": [],
      "name": "owner",
      "outputs": [
        {
          "internalType": "address",
          "name": "",
          "type": "address"
        }
      ],
      "stateMutability": "view",
      "type": "function"
    },
    {
      "inputs": [
        {
          "internalType": "uint256",
          "name": "withdrawAmount",
          "type": "uint256"
        }
      ],
      "name": "withdraw",
      "outputs": [],
      "stateMutability": "nonpayable",
      "type": "function"
    },
    {
      "stateMutability": "payable",
      "type": "receive"
    }
  ],
  "bytecode": "0x608060405234801561001057600080fd5b50336000806101000a81548173ffffffffffffffffffffffffffffffffffffffff021916908373ffffffffffffffffffffffffffffffffffffffff160217905550610835806100606000396000f3fe6080604052600436106100595760003560e01c80630a93cf33146100655780632e1a7d4d146100a25780636fbbb55d146100cb5780638da5cb5b146100f6578063a26759cb14610121578063af7f2c9b1461012b57610060565b3661006057005b600080fd5b34801561007157600080fd5b5061008c60048036038101906100879190610510565b610156565b60405161009991906105ff565b60405180910390f35b3480156100ae57600080fd5b506100c960048036038101906100c491906104e7565b610196565b005b3480156100d757600080fd5b506100e061022d565b6040516100ed919061061a565b60405180910390f35b34801561010257600080fd5b5061010b610373565b60405161011891906105ff565b60405180910390f35b610129610397565b005b34801561013757600080fd5b506101406104b7565b60405161014d919061065c565b60405180910390f35b6000600360008360ff16815260200190815260200160002060009054906101000a900473ffffffffffffffffffffffffffffffffffffffff169050919050565b8067016345785d8a00008111156101e2576040517f08c379a00000000000000000000000000000000000000000000000000000000081526004016101d99061063c565b60405180910390fd5b3373ffffffffffffffffffffffffffffffffffffffff166108fc839081150290604051600060405180830381858888f19350505050158015610228573d6000803e3d6000fd5b505050565b6060600060015467ffffffffffffffff811115610273577f4e487b7100000000000000000000000000000000000000000000000000000000600052604160045260246000fd5b6040519080825280602002602001820160405280156102a15781602001602082028036833780820191505090505b50905060005b60015481101561036b576003600082815260200190815260200160002060009054906101000a900473ffffffffffffffffffffffffffffffffffffffff1682828151811061031e577f4e487b7100000000000000000000000000000000000000000000000000000000600052603260045260246000fd5b602002602001019073ffffffffffffffffffffffffffffffffffffffff16908173ffffffffffffffffffffffffffffffffffffffff168152505080806103639061070a565b9150506102a7565b508091505090565b60008054906101000a900473ffffffffffffffffffffffffffffffffffffffff1681565b6000339050600260008273ffffffffffffffffffffffffffffffffffffffff1673ffffffffffffffffffffffffffffffffffffffff16815260200190815260200160002060009054906101000a900460ff166104b4576001600260008373ffffffffffffffffffffffffffffffffffffffff1673ffffffffffffffffffffffffffffffffffffffff16815260200190815260200160002060006101000a81548160ff02191690831515021790555060006001600081548092919061045a9061070a565b919050559050816003600083815260200190815260200160002060006101000a81548173ffffffffffffffffffffffffffffffffffffffff021916908373ffffffffffffffffffffffffffffffffffffffff160217905550505b50565b60015481565b6000813590506104cc816107d1565b92915050565b6000813590506104e1816107e8565b92915050565b6000602082840312156104f957600080fd5b6000610507848285016104bd565b91505092915050565b60006020828403121561052257600080fd5b6000610530848285016104d2565b91505092915050565b60006105458383610551565b60208301905092915050565b61055a816106c1565b82525050565b610569816106c1565b82525050565b600061057a82610687565b610584818561069f565b935061058f83610677565b8060005b838110156105c05781516105a78882610539565b97506105b283610692565b925050600181019050610593565b5085935050505092915050565b60006105da6023836106b0565b91506105e582610782565b604082019050919050565b6105f9816106f3565b82525050565b60006020820190506106146000830184610560565b92915050565b60006020820190508181036000830152610634818461056f565b905092915050565b60006020820190508181036000830152610655816105cd565b9050919050565b600060208201905061067160008301846105f0565b92915050565b6000819050602082019050919050565b600081519050919050565b6000602082019050919050565b600082825260208201905092915050565b600082825260208201905092915050565b60006106cc826106d3565b9050919050565b600073ffffffffffffffffffffffffffffffffffffffff82169050919050565b6000819050919050565b600060ff82169050919050565b6000610715826106f3565b91507fffffffffffffffffffffffffffffffffffffffffffffffffffffffffffffffff82141561074857610747610753565b5b600182019050919050565b7f4e487b7100000000000000000000000000000000000000000000000000000000600052601160045260246000fd5b7f43616e6e6f74207769746864726177206d6f7265207468616e20302e3120657460008201527f6865720000000000000000000000000000000000000000000000000000000000602082015250565b6107da816106f3565b81146107e557600080fd5b50565b6107f1816106fd565b81146107fc57600080fd5b5056fea26469706673582212209c445c5c5c2614f7ea71603885801e8da03e357bafad70370d2f8c7e4e6993c164736f6c63430008040033",
  "linkReferences": {},
  "deployedLinkReferences": {}
}